{
  "contractName": "DataTransfer",
  "abi": [
    {
      "anonymous": false,
      "inputs": [
        {
          "indexed": true,
          "internalType": "uint256",
          "name": "requestId",
          "type": "uint256"
        },
        {
          "indexed": true,
          "internalType": "address",
          "name": "requester",
          "type": "address"
        },
        {
          "indexed": true,
          "internalType": "address",
          "name": "target",
          "type": "address"
        },
        {
          "indexed": false,
          "internalType": "string",
          "name": "dbQuery",
          "type": "string"
        }
      ],
      "name": "RequestCreated",
      "type": "event"
    },
    {
      "anonymous": false,
      "inputs": [
        {
          "indexed": true,
          "internalType": "uint256",
          "name": "requestId",
          "type": "uint256"
        },
        {
          "indexed": true,
          "internalType": "address",
          "name": "responder",
          "type": "address"
        },
        {
          "indexed": false,
          "internalType": "string",
          "name": "response",
          "type": "string"
        }
      ],
      "name": "ResponseSent",
      "type": "event"
    },
    {
      "inputs": [],
      "name": "nextRequestId",
      "outputs": [
        {
          "internalType": "uint256",
          "name": "",
          "type": "uint256"
        }
      ],
      "stateMutability": "view",
      "type": "function",
      "constant": true
    },
    {
      "inputs": [
        {
          "internalType": "uint256",
          "name": "",
          "type": "uint256"
        }
      ],
      "name": "requests",
      "outputs": [
        {
          "internalType": "address",
          "name": "requester",
          "type": "address"
        },
        {
          "internalType": "address",
          "name": "target",
          "type": "address"
        },
        {
          "internalType": "string",
          "name": "dbQuery",
          "type": "string"
        },
        {
          "internalType": "bool",
          "name": "fulfilled",
          "type": "bool"
        },
        {
          "internalType": "string",
          "name": "response",
          "type": "string"
        }
      ],
      "stateMutability": "view",
      "type": "function",
      "constant": true
    },
    {
      "inputs": [
        {
          "internalType": "address",
          "name": "_target",
          "type": "address"
        },
        {
          "internalType": "string",
          "name": "_dbQuery",
          "type": "string"
        }
      ],
      "name": "createRequest",
      "outputs": [
        {
          "internalType": "uint256",
          "name": "",
          "type": "uint256"
        }
      ],
      "stateMutability": "nonpayable",
      "type": "function"
    },
    {
      "inputs": [
        {
          "internalType": "uint256",
          "name": "_requestId",
          "type": "uint256"
        },
        {
          "internalType": "string",
          "name": "_response",
          "type": "string"
        }
      ],
      "name": "submitResponse",
      "outputs": [],
      "stateMutability": "nonpayable",
      "type": "function"
    },
    {
      "inputs": [
        {
          "internalType": "uint256",
          "name": "_requestId",
          "type": "uint256"
        }
      ],
      "name": "getRequest",
      "outputs": [
        {
          "internalType": "address",
          "name": "requester",
          "type": "address"
        },
        {
          "internalType": "address",
          "name": "target",
          "type": "address"
        },
        {
          "internalType": "string",
          "name": "dbQuery",
          "type": "string"
        },
        {
          "internalType": "bool",
          "name": "fulfilled",
          "type": "bool"
        },
        {
          "internalType": "string",
          "name": "response",
          "type": "string"
        }
      ],
      "stateMutability": "view",
      "type": "function",
      "constant": true
    }
  ],
  "bytecode": "0x608060405260018055348015610013575f80fd5b50610fb0806100215f395ff3fe608060405234801561000f575f80fd5b5060043610610055575f3560e01c80636a84a9851461005957806381d12c5814610077578063a7dbf936146100ab578063b24d82c0146100c7578063c58343ef146100f7575b5f80fd5b61006161012b565b60405161006e9190610778565b60405180910390f35b610091600480360381019061008c91906107c3565b610131565b6040516100a29594939291906108d1565b60405180910390f35b6100c560048036038101906100c09190610991565b6102b8565b005b6100e160048036038101906100dc9190610a18565b6103a3565b6040516100ee9190610778565b60405180910390f35b610111600480360381019061010c91906107c3565b6105be565b6040516101229594939291906108d1565b60405180910390f35b60015481565b5f602052805f5260405f205f91509050805f015f9054906101000a900473ffffffffffffffffffffffffffffffffffffffff1690806001015f9054906101000a900473ffffffffffffffffffffffffffffffffffffffff169080600201805461019990610aa2565b80601f01602080910402602001604051908101604052809291908181526020018280546101c590610aa2565b80156102105780601f106101e757610100808354040283529160200191610210565b820191905f5260205f20905b8154815290600101906020018083116101f357829003601f168201915b505050505090806003015f9054906101000a900460ff169080600401805461023790610aa2565b80601f016020809104026020016040519081016040528092919081815260200182805461026390610aa2565b80156102ae5780601f10610285576101008083540402835291602001916102ae565b820191905f5260205f20905b81548152906001019060200180831161029157829003601f168201915b5050505050905085565b5f805f8581526020019081526020015f209050806003015f9054906101000a900460ff161561031c576040517f08c379a000000000000000000000000000000000000000000000000000000000815260040161031390610b1c565b60405180910390fd5b6001816003015f6101000a81548160ff021916908315150217905550828282600401918261034b929190610d0e565b503373ffffffffffffffffffffffffffffffffffffffff16847f0f5ee58e9c2f520fd78a72e37a39efd604244160fb2e847aaef18546edd75b828585604051610395929190610e15565b60405180910390a350505050565b5f8060015f8154809291906103b790610e64565b9190505590506040518060a001604052803373ffffffffffffffffffffffffffffffffffffffff1681526020018673ffffffffffffffffffffffffffffffffffffffff16815260200185858080601f0160208091040260200160405190810160405280939291908181526020018383808284375f81840152601f19601f8201169050808301925050505050505081526020015f1515815260200160405180602001604052805f8152508152505f808381526020019081526020015f205f820151815f015f6101000a81548173ffffffffffffffffffffffffffffffffffffffff021916908373ffffffffffffffffffffffffffffffffffffffff1602179055506020820151816001015f6101000a81548173ffffffffffffffffffffffffffffffffffffffff021916908373ffffffffffffffffffffffffffffffffffffffff16021790555060408201518160020190816105129190610eab565b506060820151816003015f6101000a81548160ff02191690831515021790555060808201518160040190816105479190610eab565b509050508473ffffffffffffffffffffffffffffffffffffffff163373ffffffffffffffffffffffffffffffffffffffff16827f5e216ccd5fa45a0096ee5dba7543186fc6e4491c6e0f5d17096ec941644937fd87876040516105ab929190610e15565b60405180910390a4809150509392505050565b5f8060605f60605f805f8881526020019081526020015f209050805f015f9054906101000a900473ffffffffffffffffffffffffffffffffffffffff16816001015f9054906101000a900473ffffffffffffffffffffffffffffffffffffffff1682600201836003015f9054906101000a900460ff168460040182805461064490610aa2565b80601f016020809104026020016040519081016040528092919081815260200182805461067090610aa2565b80156106bb5780601f10610692576101008083540402835291602001916106bb565b820191905f5260205f20905b81548152906001019060200180831161069e57829003601f168201915b505050505092508080546106ce90610aa2565b80601f01602080910402602001604051908101604052809291908181526020018280546106fa90610aa2565b80156107455780601f1061071c57610100808354040283529160200191610745565b820191905f5260205f20905b81548152906001019060200180831161072857829003601f168201915b50505050509050955095509550955095505091939590929450565b5f819050919050565b61077281610760565b82525050565b5f60208201905061078b5f830184610769565b92915050565b5f80fd5b5f80fd5b6107a281610760565b81146107ac575f80fd5b50565b5f813590506107bd81610799565b92915050565b5f602082840312156107d8576107d7610791565b5b5f6107e5848285016107af565b91505092915050565b5f73ffffffffffffffffffffffffffffffffffffffff82169050919050565b5f610817826107ee565b9050919050565b6108278161080d565b82525050565b5f81519050919050565b5f82825260208201905092915050565b5f5b83811015610864578082015181840152602081019050610849565b5f8484015250505050565b5f601f19601f8301169050919050565b5f6108898261082d565b6108938185610837565b93506108a3818560208601610847565b6108ac8161086f565b840191505092915050565b5f8115159050919050565b6108cb816108b7565b82525050565b5f60a0820190506108e45f83018861081e565b6108f1602083018761081e565b8181036040830152610903818661087f565b905061091260608301856108c2565b8181036080830152610924818461087f565b90509695505050505050565b5f80fd5b5f80fd5b5f80fd5b5f8083601f84011261095157610950610930565b5b8235905067ffffffffffffffff81111561096e5761096d610934565b5b60208301915083600182028301111561098a57610989610938565b5b9250929050565b5f805f604084860312156109a8576109a7610791565b5b5f6109b5868287016107af565b935050602084013567ffffffffffffffff8111156109d6576109d5610795565b5b6109e28682870161093c565b92509250509250925092565b6109f78161080d565b8114610a01575f80fd5b50565b5f81359050610a12816109ee565b92915050565b5f805f60408486031215610a2f57610a2e610791565b5b5f610a3c86828701610a04565b935050602084013567ffffffffffffffff811115610a5d57610a5c610795565b5b610a698682870161093c565b92509250509250925092565b7f4e487b71000000000000000000000000000000000000000000000000000000005f52602260045260245ffd5b5f6002820490506001821680610ab957607f821691505b602082108103610acc57610acb610a75565b5b50919050565b7f5265717565737420616c72656164792066756c66696c6c6564000000000000005f82015250565b5f610b06601983610837565b9150610b1182610ad2565b602082019050919050565b5f6020820190508181035f830152610b3381610afa565b9050919050565b5f82905092915050565b7f4e487b71000000000000000000000000000000000000000000000000000000005f52604160045260245ffd5b5f819050815f5260205f209050919050565b5f6020601f8301049050919050565b5f82821b905092915050565b5f60088302610bcd7fffffffffffffffffffffffffffffffffffffffffffffffffffffffffffffffff82610b92565b610bd78683610b92565b95508019841693508086168417925050509392505050565b5f819050919050565b5f610c12610c0d610c0884610760565b610bef565b610760565b9050919050565b5f819050919050565b610c2b83610bf8565b610c3f610c3782610c19565b848454610b9e565b825550505050565b5f90565b610c53610c47565b610c5e818484610c22565b505050565b5b81811015610c8157610c765f82610c4b565b600181019050610c64565b5050565b601f821115610cc657610c9781610b71565b610ca084610b83565b81016020851015610caf578190505b610cc3610cbb85610b83565b830182610c63565b50505b505050565b5f82821c905092915050565b5f610ce65f1984600802610ccb565b1980831691505092915050565b5f610cfe8383610cd7565b9150826002028217905092915050565b610d188383610b3a565b67ffffffffffffffff811115610d3157610d30610b44565b5b610d3b8254610aa2565b610d46828285610c85565b5f601f831160018114610d73575f8415610d61578287013590505b610d6b8582610cf3565b865550610dd2565b601f198416610d8186610b71565b5f5b82811015610da857848901358255600182019150602085019450602081019050610d83565b86831015610dc55784890135610dc1601f891682610cd7565b8355505b6001600288020188555050505b50505050505050565b828183375f83830152505050565b5f610df48385610837565b9350610e01838584610ddb565b610e0a8361086f565b840190509392505050565b5f6020820190508181035f830152610e2e818486610de9565b90509392505050565b7f4e487b71000000000000000000000000000000000000000000000000000000005f52601160045260245ffd5b5f610e6e82610760565b91507fffffffffffffffffffffffffffffffffffffffffffffffffffffffffffffffff8203610ea057610e9f610e37565b5b600182019050919050565b610eb48261082d565b67ffffffffffffffff811115610ecd57610ecc610b44565b5b610ed78254610aa2565b610ee2828285610c85565b5f60209050601f831160018114610f13575f8415610f01578287015190505b610f0b8582610cf3565b865550610f72565b601f198416610f2186610b71565b5f5b82811015610f4857848901518255600182019150602085019450602081019050610f23565b86831015610f655784890151610f61601f891682610cd7565b8355505b6001600288020188555050505b50505050505056fea26469706673582212204d6c8ff90b75e2dde3a7ec95774852da1392663cb18b4c4eed58e7a64ad1c0ab64736f6c63430008150033",
  "immutableReferences": {},
  "source": "// SPDX-License-Identifier: MIT\npragma solidity ^0.8.0;\n\ncontract DataTransfer {\n    struct Request {\n        address requester;\n        address target; // New: Target peer address\n        string dbQuery;\n        bool fulfilled;\n        string response;\n    }\n\n    mapping(uint => Request) public requests;\n    uint public nextRequestId = 1;\n\n\n    event RequestCreated(\n        uint indexed requestId,\n        address indexed requester,\n        address indexed target,\n        string dbQuery\n    );\n\n    event ResponseSent(\n        uint indexed requestId,\n        address indexed responder,\n        string response\n    );\n\n    function createRequest(address _target, string calldata _dbQuery) external returns (uint) {\n        uint requestId = nextRequestId++;\n        requests[requestId] = Request({\n            requester: msg.sender,\n            target: _target,\n            dbQuery: _dbQuery,\n            fulfilled: false,\n            response: \"\"\n        });\n        emit RequestCreated(requestId, msg.sender, _target, _dbQuery);\n        return requestId;\n    }\n\n    function submitResponse(uint _requestId, string calldata _response) external {\n        Request storage req = requests[_requestId];\n        require(!req.fulfilled, \"Request already fulfilled\");\n        req.fulfilled = true;\n        req.response = _response;\n        emit ResponseSent(_requestId, msg.sender, _response);\n    }\n\n    function getRequest(uint _requestId) external view returns (\n        address requester,\n        address target,\n        string memory dbQuery,\n        bool fulfilled,\n        string memory response\n    ) {\n        Request storage req = requests[_requestId];\n        return (req.requester, req.target, req.dbQuery, req.fulfilled, req.response);\n    }\n}\n",
  "sourcePath": "/home/variable/PeerNetwork/Project/contracts/DataTransfer.sol",
  "compiler": {
    "name": "solc",
    "version": "0.8.21+commit.d9974bed.Emscripten.clang"
  },
  "schemaVersion": "3.4.16",
  "updatedAt": "2025-06-23T09:31:28.282Z",
  "networkType": "ethereum",
  "devdoc": {
    "kind": "dev",
    "methods": {},
    "version": 1
  },
  "userdoc": {
    "kind": "user",
    "methods": {},
    "version": 1
  }
}